{
  "_format": "hh-sol-artifact-1",
  "contractName": "AssetManager",
  "sourceName": "contracts/AssetManager.sol",
  "abi": [
    {
      "inputs": [
        {
          "internalType": "uint256",
          "name": "",
          "type": "uint256"
        }
      ],
      "name": "assetAddresses",
      "outputs": [
        {
          "internalType": "address",
          "name": "",
          "type": "address"
        }
      ],
      "stateMutability": "view",
      "type": "function"
    },
    {
      "inputs": [],
      "name": "assetsLength",
      "outputs": [
        {
          "internalType": "uint256",
          "name": "",
          "type": "uint256"
        }
      ],
      "stateMutability": "view",
      "type": "function"
    },
    {
      "inputs": [
        {
          "internalType": "string",
          "name": "name",
          "type": "string"
        },
        {
          "internalType": "string",
          "name": "symbol",
          "type": "string"
        },
        {
          "internalType": "uint256",
          "name": "openingTime",
          "type": "uint256"
        },
        {
          "internalType": "uint256",
          "name": "closingTime",
          "type": "uint256"
        },
        {
          "internalType": "uint256",
          "name": "resultTime",
          "type": "uint256"
        },
        {
          "internalType": "uint256",
          "name": "betPrice",
          "type": "uint256"
        }
      ],
      "name": "createAsset",
      "outputs": [
        {
          "internalType": "address",
          "name": "",
          "type": "address"
        }
      ],
      "stateMutability": "nonpayable",
      "type": "function"
    },
    {
      "inputs": [],
      "name": "getAllAssets",
      "outputs": [
        {
          "internalType": "address[]",
          "name": "",
          "type": "address[]"
        }
      ],
      "stateMutability": "view",
      "type": "function"
    },
    {
      "inputs": [
        {
          "internalType": "address",
          "name": "assetAddress",
          "type": "address"
        }
      ],
      "name": "getAssetDetails",
      "outputs": [
        {
          "internalType": "string",
          "name": "name",
          "type": "string"
        },
        {
          "internalType": "string",
          "name": "symbol",
          "type": "string"
        },
        {
          "internalType": "uint256",
          "name": "openingTime",
          "type": "uint256"
        },
        {
          "internalType": "uint256",
          "name": "closingTime",
          "type": "uint256"
        },
        {
          "internalType": "uint256",
          "name": "resultTime",
          "type": "uint256"
        },
        {
          "internalType": "uint256",
          "name": "betPrice",
          "type": "uint256"
        },
        {
          "internalType": "address",
          "name": "betSetter",
          "type": "address"
        }
      ],
      "stateMutability": "view",
      "type": "function"
    }
  ],
  "bytecode": "0x608060405234801561001057600080fd5b50612882806100206000396000f3fe60806040523480156200001157600080fd5b50600436106200005e5760003560e01c80632acada4d14620000635780639c9b64511462000085578063a6df16d714620000c1578063d07bf89c14620000f7578063f50477a2146200012d575b600080fd5b6200006d6200014f565b6040516200007c91906200074d565b60405180910390f35b620000a360048036038101906200009d9190620007b6565b620001df565b604051620000b89796959493929190620008ae565b60405180910390f35b620000df6004803603810190620000d991906200096a565b62000530565b604051620000ee91906200099c565b60405180910390f35b6200011560048036038101906200010f919062000b0a565b62000570565b6040516200012491906200099c565b60405180910390f35b6200013762000631565b60405162000146919062000be4565b60405180910390f35b60606000805480602002602001604051908101604052809291908181526020018280548015620001d557602002820191906000526020600020905b8160009054906101000a900473ffffffffffffffffffffffffffffffffffffffff1673ffffffffffffffffffffffffffffffffffffffff16815260200190600101908083116200018a575b5050505050905090565b6060806000806000806000808890508073ffffffffffffffffffffffffffffffffffffffff166306fdde036040518163ffffffff1660e01b8152600401600060405180830381865afa1580156200023a573d6000803e3d6000fd5b505050506040513d6000823e3d601f19601f8201168201806040525081019062000265919062000c7f565b8173ffffffffffffffffffffffffffffffffffffffff166395d89b416040518163ffffffff1660e01b8152600401600060405180830381865afa158015620002b1573d6000803e3d6000fd5b505050506040513d6000823e3d601f19601f82011682018060405250810190620002dc919062000c7f565b8273ffffffffffffffffffffffffffffffffffffffff1663b7a8807c6040518163ffffffff1660e01b8152600401602060405180830381865afa15801562000328573d6000803e3d6000fd5b505050506040513d601f19601f820116820180604052508101906200034e919062000ce7565b8373ffffffffffffffffffffffffffffffffffffffff16634b6753bc6040518163ffffffff1660e01b8152600401602060405180830381865afa1580156200039a573d6000803e3d6000fd5b505050506040513d601f19601f82011682018060405250810190620003c0919062000ce7565b8473ffffffffffffffffffffffffffffffffffffffff166393a92e8b6040518163ffffffff1660e01b8152600401602060405180830381865afa1580156200040c573d6000803e3d6000fd5b505050506040513d601f19601f8201168201806040525081019062000432919062000ce7565b8573ffffffffffffffffffffffffffffffffffffffff1663db5ea8926040518163ffffffff1660e01b8152600401602060405180830381865afa1580156200047e573d6000803e3d6000fd5b505050506040513d601f19601f82011682018060405250810190620004a4919062000ce7565b8673ffffffffffffffffffffffffffffffffffffffff1663950fb37d6040518163ffffffff1660e01b8152600401602060405180830381865afa158015620004f0573d6000803e3d6000fd5b505050506040513d601f19601f8201168201806040525081019062000516919062000d30565b975097509750975097509750975050919395979092949650565b600081815481106200054157600080fd5b906000526020600020016000915054906101000a900473ffffffffffffffffffffffffffffffffffffffff1681565b6000808787878787873360405162000588906200063d565b6200059a9796959493929190620008ae565b604051809103906000f080158015620005b7573d6000803e3d6000fd5b50905060008190506000819080600181540180825580915050600190039060005260206000200160009091909190916101000a81548173ffffffffffffffffffffffffffffffffffffffff021916908373ffffffffffffffffffffffffffffffffffffffff16021790555080925050509695505050505050565b60008080549050905090565b611aea8062000d6383390190565b600081519050919050565b600082825260208201905092915050565b6000819050602082019050919050565b600073ffffffffffffffffffffffffffffffffffffffff82169050919050565b6000620006a48262000677565b9050919050565b620006b68162000697565b82525050565b6000620006ca8383620006ab565b60208301905092915050565b6000602082019050919050565b6000620006f0826200064b565b620006fc818562000656565b9350620007098362000667565b8060005b8381101562000740578151620007248882620006bc565b97506200073183620006d6565b9250506001810190506200070d565b5085935050505092915050565b60006020820190508181036000830152620007698184620006e3565b905092915050565b6000604051905090565b600080fd5b600080fd5b620007908162000697565b81146200079c57600080fd5b50565b600081359050620007b08162000785565b92915050565b600060208284031215620007cf57620007ce6200077b565b5b6000620007df848285016200079f565b91505092915050565b600081519050919050565b600082825260208201905092915050565b60005b838110156200082457808201518184015260208101905062000807565b60008484015250505050565b6000601f19601f8301169050919050565b60006200084e82620007e8565b6200085a8185620007f3565b93506200086c81856020860162000804565b620008778162000830565b840191505092915050565b6000819050919050565b620008978162000882565b82525050565b620008a88162000697565b82525050565b600060e0820190508181036000830152620008ca818a62000841565b90508181036020830152620008e0818962000841565b9050620008f160408301886200088c565b6200090060608301876200088c565b6200090f60808301866200088c565b6200091e60a08301856200088c565b6200092d60c08301846200089d565b98975050505050505050565b620009448162000882565b81146200095057600080fd5b50565b600081359050620009648162000939565b92915050565b6000602082840312156200098357620009826200077b565b5b6000620009938482850162000953565b91505092915050565b6000602082019050620009b360008301846200089d565b92915050565b600080fd5b600080fd5b7f4e487b7100000000000000000000000000000000000000000000000000000000600052604160045260246000fd5b620009fd8262000830565b810181811067ffffffffffffffff8211171562000a1f5762000a1e620009c3565b5b80604052505050565b600062000a3462000771565b905062000a428282620009f2565b919050565b600067ffffffffffffffff82111562000a655762000a64620009c3565b5b62000a708262000830565b9050602081019050919050565b82818337600083830152505050565b600062000aa362000a9d8462000a47565b62000a28565b90508281526020810184848401111562000ac25762000ac1620009be565b5b62000acf84828562000a7d565b509392505050565b600082601f83011262000aef5762000aee620009b9565b5b813562000b0184826020860162000a8c565b91505092915050565b60008060008060008060c0878903121562000b2a5762000b296200077b565b5b600087013567ffffffffffffffff81111562000b4b5762000b4a62000780565b5b62000b5989828a0162000ad7565b965050602087013567ffffffffffffffff81111562000b7d5762000b7c62000780565b5b62000b8b89828a0162000ad7565b955050604062000b9e89828a0162000953565b945050606062000bb189828a0162000953565b935050608062000bc489828a0162000953565b92505060a062000bd789828a0162000953565b9150509295509295509295565b600060208201905062000bfb60008301846200088c565b92915050565b600062000c1862000c128462000a47565b62000a28565b90508281526020810184848401111562000c375762000c36620009be565b5b62000c4484828562000804565b509392505050565b600082601f83011262000c645762000c63620009b9565b5b815162000c7684826020860162000c01565b91505092915050565b60006020828403121562000c985762000c976200077b565b5b600082015167ffffffffffffffff81111562000cb95762000cb862000780565b5b62000cc78482850162000c4c565b91505092915050565b60008151905062000ce18162000939565b92915050565b60006020828403121562000d005762000cff6200077b565b5b600062000d108482850162000cd0565b91505092915050565b60008151905062000d2a8162000785565b92915050565b60006020828403121562000d495762000d486200077b565b5b600062000d598482850162000d19565b9150509291505056fe60806040523480156200001157600080fd5b5060405162001aea38038062001aea8339818101604052810190620000379190620003e0565b306000806101000a81548173ffffffffffffffffffffffffffffffffffffffff021916908373ffffffffffffffffffffffffffffffffffffffff160217905550866001908162000088919062000712565b5085600290816200009a919062000712565b508460038190555083600481905550826005819055508160068190555080600760006101000a81548173ffffffffffffffffffffffffffffffffffffffff021916908373ffffffffffffffffffffffffffffffffffffffff16021790555060008054906101000a900473ffffffffffffffffffffffffffffffffffffffff1673ffffffffffffffffffffffffffffffffffffffff167f392f38ce3f264c0d1d409cff712e573439bc2e53a7eefc647cd35819bf8012b760016002600354600454600554600654600760009054906101000a900473ffffffffffffffffffffffffffffffffffffffff16604051620001989796959493929190620008bc565b60405180910390a25050505050505062000947565b6000604051905090565b600080fd5b600080fd5b600080fd5b600080fd5b6000601f19601f8301169050919050565b7f4e487b7100000000000000000000000000000000000000000000000000000000600052604160045260246000fd5b6200021682620001cb565b810181811067ffffffffffffffff82111715620002385762000237620001dc565b5b80604052505050565b60006200024d620001ad565b90506200025b82826200020b565b919050565b600067ffffffffffffffff8211156200027e576200027d620001dc565b5b6200028982620001cb565b9050602081019050919050565b60005b83811015620002b657808201518184015260208101905062000299565b60008484015250505050565b6000620002d9620002d38462000260565b62000241565b905082815260208101848484011115620002f857620002f7620001c6565b5b6200030584828562000296565b509392505050565b600082601f830112620003255762000324620001c1565b5b815162000337848260208601620002c2565b91505092915050565b6000819050919050565b620003558162000340565b81146200036157600080fd5b50565b60008151905062000375816200034a565b92915050565b600073ffffffffffffffffffffffffffffffffffffffff82169050919050565b6000620003a8826200037b565b9050919050565b620003ba816200039b565b8114620003c657600080fd5b50565b600081519050620003da81620003af565b92915050565b600080600080600080600060e0888a031215620004025762000401620001b7565b5b600088015167ffffffffffffffff811115620004235762000422620001bc565b5b620004318a828b016200030d565b975050602088015167ffffffffffffffff811115620004555762000454620001bc565b5b620004638a828b016200030d565b9650506040620004768a828b0162000364565b9550506060620004898a828b0162000364565b94505060806200049c8a828b0162000364565b93505060a0620004af8a828b0162000364565b92505060c0620004c28a828b01620003c9565b91505092959891949750929550565b600081519050919050565b7f4e487b7100000000000000000000000000000000000000000000000000000000600052602260045260246000fd5b600060028204905060018216806200052457607f821691505b6020821081036200053a5762000539620004dc565b5b50919050565b60008190508160005260206000209050919050565b60006020601f8301049050919050565b600082821b905092915050565b600060088302620005a47fffffffffffffffffffffffffffffffffffffffffffffffffffffffffffffffff8262000565565b620005b0868362000565565b95508019841693508086168417925050509392505050565b6000819050919050565b6000620005f3620005ed620005e78462000340565b620005c8565b62000340565b9050919050565b6000819050919050565b6200060f83620005d2565b620006276200061e82620005fa565b84845462000572565b825550505050565b600090565b6200063e6200062f565b6200064b81848462000604565b505050565b5b8181101562000673576200066760008262000634565b60018101905062000651565b5050565b601f821115620006c2576200068c8162000540565b620006978462000555565b81016020851015620006a7578190505b620006bf620006b68562000555565b83018262000650565b50505b505050565b600082821c905092915050565b6000620006e760001984600802620006c7565b1980831691505092915050565b6000620007028383620006d4565b9150826002028217905092915050565b6200071d82620004d1565b67ffffffffffffffff811115620007395762000738620001dc565b5b6200074582546200050b565b6200075282828562000677565b600060209050601f8311600181146200078a576000841562000775578287015190505b620007818582620006f4565b865550620007f1565b601f1984166200079a8662000540565b60005b82811015620007c4578489015182556001820191506020850194506020810190506200079d565b86831015620007e45784890151620007e0601f891682620006d4565b8355505b6001600288020188555050505b505050505050565b600082825260208201905092915050565b6000815462000819816200050b565b620008258186620007f9565b945060018216600081146200084357600181146200085a5762000891565b60ff19831686528115156020028601935062000891565b620008658562000540565b60005b83811015620008895781548189015260018201915060208101905062000868565b808801955050505b50505092915050565b620008a58162000340565b82525050565b620008b6816200039b565b82525050565b600060e0820190508181036000830152620008d8818a6200080a565b90508181036020830152620008ee81896200080a565b9050620008ff60408301886200089a565b6200090e60608301876200089a565b6200091d60808301866200089a565b6200092c60a08301856200089a565b6200093b60c0830184620008ab565b98975050505050505050565b61119380620009576000396000f3fe608060405234801561001057600080fd5b50600436106100f55760003560e01c8063950fb37d11610097578063b84c824611610066578063b84c82461461023c578063c47f002714610258578063cfd8a17514610274578063db5ea89214610292576100f5565b8063950fb37d146101c657806395d89b41146101e4578063abdd11a814610202578063b7a8807c1461021e576100f5565b806329354cf4116100d357806329354cf4146101525780634b6753bc1461016e5780634b89c41d1461018c57806393a92e8b146101a8576100f5565b806306fdde03146100fa5780631ba46cfd1461011857806321c2868314610136575b600080fd5b6101026102b0565b60405161010f9190610876565b60405180910390f35b61012061033e565b60405161012d91906108d9565b60405180910390f35b610150600480360381019061014b919061093e565b610362565b005b61016c6004803603810190610167919061093e565b6103fc565b005b610176610496565b604051610183919061097a565b60405180910390f35b6101a660048036038101906101a1919061093e565b61049c565b005b6101b0610536565b6040516101bd919061097a565b60405180910390f35b6101ce61053c565b6040516101db91906108d9565b60405180910390f35b6101ec610562565b6040516101f99190610876565b60405180910390f35b61021c6004803603810190610217919061093e565b6105f0565b005b61022661068a565b604051610233919061097a565b60405180910390f35b61025660048036038101906102519190610aca565b610690565b005b610272600480360381019061026d9190610aca565b610733565b005b61027c6107d6565b604051610289919061097a565b60405180910390f35b61029a6107dc565b6040516102a7919061097a565b60405180910390f35b600180546102bd90610b42565b80601f01602080910402602001604051908101604052809291908181526020018280546102e990610b42565b80156103365780601f1061030b57610100808354040283529160200191610336565b820191906000526020600020905b81548152906001019060200180831161031957829003601f168201915b505050505081565b60008054906101000a900473ffffffffffffffffffffffffffffffffffffffff1681565b600760009054906101000a900473ffffffffffffffffffffffffffffffffffffffff1673ffffffffffffffffffffffffffffffffffffffff163373ffffffffffffffffffffffffffffffffffffffff16146103f2576040517f08c379a00000000000000000000000000000000000000000000000000000000081526004016103e990610be5565b60405180910390fd5b8060068190555050565b600760009054906101000a900473ffffffffffffffffffffffffffffffffffffffff1673ffffffffffffffffffffffffffffffffffffffff163373ffffffffffffffffffffffffffffffffffffffff161461048c576040517f08c379a000000000000000000000000000000000000000000000000000000000815260040161048390610c77565b60405180910390fd5b8060058190555050565b60045481565b600760009054906101000a900473ffffffffffffffffffffffffffffffffffffffff1673ffffffffffffffffffffffffffffffffffffffff163373ffffffffffffffffffffffffffffffffffffffff161461052c576040517f08c379a000000000000000000000000000000000000000000000000000000000815260040161052390610d09565b60405180910390fd5b8060048190555050565b60055481565b600760009054906101000a900473ffffffffffffffffffffffffffffffffffffffff1681565b6002805461056f90610b42565b80601f016020809104026020016040519081016040528092919081815260200182805461059b90610b42565b80156105e85780601f106105bd576101008083540402835291602001916105e8565b820191906000526020600020905b8154815290600101906020018083116105cb57829003601f168201915b505050505081565b600760009054906101000a900473ffffffffffffffffffffffffffffffffffffffff1673ffffffffffffffffffffffffffffffffffffffff163373ffffffffffffffffffffffffffffffffffffffff1614610680576040517f08c379a000000000000000000000000000000000000000000000000000000000815260040161067790610d9b565b60405180910390fd5b8060038190555050565b60035481565b600760009054906101000a900473ffffffffffffffffffffffffffffffffffffffff1673ffffffffffffffffffffffffffffffffffffffff163373ffffffffffffffffffffffffffffffffffffffff1614610720576040517f08c379a000000000000000000000000000000000000000000000000000000000815260040161071790610e2d565b60405180910390fd5b806002908161072f9190610ff9565b5050565b600760009054906101000a900473ffffffffffffffffffffffffffffffffffffffff1673ffffffffffffffffffffffffffffffffffffffff163373ffffffffffffffffffffffffffffffffffffffff16146107c3576040517f08c379a00000000000000000000000000000000000000000000000000000000081526004016107ba9061113d565b60405180910390fd5b80600190816107d29190610ff9565b5050565b60065481565b6000600654905090565b600081519050919050565b600082825260208201905092915050565b60005b83811015610820578082015181840152602081019050610805565b60008484015250505050565b6000601f19601f8301169050919050565b6000610848826107e6565b61085281856107f1565b9350610862818560208601610802565b61086b8161082c565b840191505092915050565b60006020820190508181036000830152610890818461083d565b905092915050565b600073ffffffffffffffffffffffffffffffffffffffff82169050919050565b60006108c382610898565b9050919050565b6108d3816108b8565b82525050565b60006020820190506108ee60008301846108ca565b92915050565b6000604051905090565b600080fd5b600080fd5b6000819050919050565b61091b81610908565b811461092657600080fd5b50565b60008135905061093881610912565b92915050565b600060208284031215610954576109536108fe565b5b600061096284828501610929565b91505092915050565b61097481610908565b82525050565b600060208201905061098f600083018461096b565b92915050565b600080fd5b600080fd5b7f4e487b7100000000000000000000000000000000000000000000000000000000600052604160045260246000fd5b6109d78261082c565b810181811067ffffffffffffffff821117156109f6576109f561099f565b5b80604052505050565b6000610a096108f4565b9050610a1582826109ce565b919050565b600067ffffffffffffffff821115610a3557610a3461099f565b5b610a3e8261082c565b9050602081019050919050565b82818337600083830152505050565b6000610a6d610a6884610a1a565b6109ff565b905082815260208101848484011115610a8957610a8861099a565b5b610a94848285610a4b565b509392505050565b600082601f830112610ab157610ab0610995565b5b8135610ac1848260208601610a5a565b91505092915050565b600060208284031215610ae057610adf6108fe565b5b600082013567ffffffffffffffff811115610afe57610afd610903565b5b610b0a84828501610a9c565b91505092915050565b7f4e487b7100000000000000000000000000000000000000000000000000000000600052602260045260246000fd5b60006002820490506001821680610b5a57607f821691505b602082108103610b6d57610b6c610b13565b5b50919050565b7f4f6e6c79206265745365747465722063616e207570646174652074686520626560008201527f7420707269636500000000000000000000000000000000000000000000000000602082015250565b6000610bcf6027836107f1565b9150610bda82610b73565b604082019050919050565b60006020820190508181036000830152610bfe81610bc2565b9050919050565b7f4f6e6c79206265745365747465722063616e207570646174652074686520726560008201527f73756c742074696d650000000000000000000000000000000000000000000000602082015250565b6000610c616029836107f1565b9150610c6c82610c05565b604082019050919050565b60006020820190508181036000830152610c9081610c54565b9050919050565b7f4f6e6c79206265745365747465722063616e207570646174652074686520636c60008201527f6f73696e672074696d6500000000000000000000000000000000000000000000602082015250565b6000610cf3602a836107f1565b9150610cfe82610c97565b604082019050919050565b60006020820190508181036000830152610d2281610ce6565b9050919050565b7f4f6e6c79206265745365747465722063616e2075706461746520746865206f7060008201527f656e696e672074696d6500000000000000000000000000000000000000000000602082015250565b6000610d85602a836107f1565b9150610d9082610d29565b604082019050919050565b60006020820190508181036000830152610db481610d78565b9050919050565b7f4f6e6c79206265745365747465722063616e207570646174652074686520737960008201527f6d626f6c00000000000000000000000000000000000000000000000000000000602082015250565b6000610e176024836107f1565b9150610e2282610dbb565b604082019050919050565b60006020820190508181036000830152610e4681610e0a565b9050919050565b60008190508160005260206000209050919050565b60006020601f8301049050919050565b600082821b905092915050565b600060088302610eaf7fffffffffffffffffffffffffffffffffffffffffffffffffffffffffffffffff82610e72565b610eb98683610e72565b95508019841693508086168417925050509392505050565b6000819050919050565b6000610ef6610ef1610eec84610908565b610ed1565b610908565b9050919050565b6000819050919050565b610f1083610edb565b610f24610f1c82610efd565b848454610e7f565b825550505050565b600090565b610f39610f2c565b610f44818484610f07565b505050565b5b81811015610f6857610f5d600082610f31565b600181019050610f4a565b5050565b601f821115610fad57610f7e81610e4d565b610f8784610e62565b81016020851015610f96578190505b610faa610fa285610e62565b830182610f49565b50505b505050565b600082821c905092915050565b6000610fd060001984600802610fb2565b1980831691505092915050565b6000610fe98383610fbf565b9150826002028217905092915050565b611002826107e6565b67ffffffffffffffff81111561101b5761101a61099f565b5b6110258254610b42565b611030828285610f6c565b600060209050601f8311600181146110635760008415611051578287015190505b61105b8582610fdd565b8655506110c3565b601f19841661107186610e4d565b60005b8281101561109957848901518255600182019150602085019450602081019050611074565b868310156110b657848901516110b2601f891682610fbf565b8355505b6001600288020188555050505b505050505050565b7f4f6e6c79206265745365747465722063616e2075706461746520746865206e6160008201527f6d65000000000000000000000000000000000000000000000000000000000000602082015250565b60006111276022836107f1565b9150611132826110cb565b604082019050919050565b600060208201905081810360008301526111568161111a565b905091905056fea2646970667358221220550ce54452e4284f8215ae6662916cd8e75471cd44a7b016de40500fe513fa6d64736f6c63430008180033a26469706673582212200bc0810a358e5b0f92b10475a2d4f0c4fa76bd1b83b73d0cc9c69be26d3f029964736f6c63430008180033",
  "linkReferences": {},
  "deployedLinkReferences": {}
}