{
  "_format": "hh-sol-artifact-1",
  "contractName": "Asset",
  "sourceName": "contracts/Asset.sol",
  "abi": [
    {
      "inputs": [
        {
          "internalType": "string",
          "name": "_name",
          "type": "string"
        },
        {
          "internalType": "string",
          "name": "_symbol",
          "type": "string"
        },
        {
          "internalType": "uint256",
          "name": "_openingTime",
          "type": "uint256"
        },
        {
          "internalType": "uint256",
          "name": "_closingTime",
          "type": "uint256"
        },
        {
          "internalType": "uint256",
          "name": "_resultTime",
          "type": "uint256"
        },
        {
          "internalType": "uint256",
          "name": "_betPrice",
          "type": "uint256"
        },
        {
          "internalType": "address",
          "name": "_betSetter",
          "type": "address"
        }
      ],
      "stateMutability": "nonpayable",
      "type": "constructor"
    },
    {
      "anonymous": false,
      "inputs": [
        {
          "indexed": true,
          "internalType": "address",
          "name": "assetAddress",
          "type": "address"
        },
        {
          "indexed": false,
          "internalType": "string",
          "name": "name",
          "type": "string"
        },
        {
          "indexed": false,
          "internalType": "string",
          "name": "symbol",
          "type": "string"
        },
        {
          "indexed": false,
          "internalType": "uint256",
          "name": "openingTime",
          "type": "uint256"
        },
        {
          "indexed": false,
          "internalType": "uint256",
          "name": "closingTime",
          "type": "uint256"
        },
        {
          "indexed": false,
          "internalType": "uint256",
          "name": "resultTime",
          "type": "uint256"
        },
        {
          "indexed": false,
          "internalType": "uint256",
          "name": "betPrice",
          "type": "uint256"
        },
        {
          "indexed": false,
          "internalType": "address",
          "name": "betSetter",
          "type": "address"
        }
      ],
      "name": "AssetCreated",
      "type": "event"
    },
    {
      "inputs": [],
      "name": "assetAddress",
      "outputs": [
        {
          "internalType": "address",
          "name": "",
          "type": "address"
        }
      ],
      "stateMutability": "view",
      "type": "function"
    },
    {
      "inputs": [],
      "name": "betPrice",
      "outputs": [
        {
          "internalType": "uint256",
          "name": "",
          "type": "uint256"
        }
      ],
      "stateMutability": "view",
      "type": "function"
    },
    {
      "inputs": [],
      "name": "betSetter",
      "outputs": [
        {
          "internalType": "address",
          "name": "",
          "type": "address"
        }
      ],
      "stateMutability": "view",
      "type": "function"
    },
    {
      "inputs": [],
      "name": "closingTime",
      "outputs": [
        {
          "internalType": "uint256",
          "name": "",
          "type": "uint256"
        }
      ],
      "stateMutability": "view",
      "type": "function"
    },
    {
      "inputs": [],
      "name": "getBetPrice",
      "outputs": [
        {
          "internalType": "uint256",
          "name": "",
          "type": "uint256"
        }
      ],
      "stateMutability": "view",
      "type": "function"
    },
    {
      "inputs": [],
      "name": "name",
      "outputs": [
        {
          "internalType": "string",
          "name": "",
          "type": "string"
        }
      ],
      "stateMutability": "view",
      "type": "function"
    },
    {
      "inputs": [],
      "name": "openingTime",
      "outputs": [
        {
          "internalType": "uint256",
          "name": "",
          "type": "uint256"
        }
      ],
      "stateMutability": "view",
      "type": "function"
    },
    {
      "inputs": [],
      "name": "resultTime",
      "outputs": [
        {
          "internalType": "uint256",
          "name": "",
          "type": "uint256"
        }
      ],
      "stateMutability": "view",
      "type": "function"
    },
    {
      "inputs": [
        {
          "internalType": "uint256",
          "name": "_betPrice",
          "type": "uint256"
        }
      ],
      "name": "setBetPrice",
      "outputs": [],
      "stateMutability": "nonpayable",
      "type": "function"
    },
    {
      "inputs": [
        {
          "internalType": "uint256",
          "name": "_closingTime",
          "type": "uint256"
        }
      ],
      "name": "setClosingTime",
      "outputs": [],
      "stateMutability": "nonpayable",
      "type": "function"
    },
    {
      "inputs": [
        {
          "internalType": "string",
          "name": "_name",
          "type": "string"
        }
      ],
      "name": "setName",
      "outputs": [],
      "stateMutability": "nonpayable",
      "type": "function"
    },
    {
      "inputs": [
        {
          "internalType": "uint256",
          "name": "_openingTime",
          "type": "uint256"
        }
      ],
      "name": "setOpeningTime",
      "outputs": [],
      "stateMutability": "nonpayable",
      "type": "function"
    },
    {
      "inputs": [
        {
          "internalType": "uint256",
          "name": "_resultTime",
          "type": "uint256"
        }
      ],
      "name": "setResultTime",
      "outputs": [],
      "stateMutability": "nonpayable",
      "type": "function"
    },
    {
      "inputs": [
        {
          "internalType": "string",
          "name": "_symbol",
          "type": "string"
        }
      ],
      "name": "setSymbol",
      "outputs": [],
      "stateMutability": "nonpayable",
      "type": "function"
    },
    {
      "inputs": [],
      "name": "symbol",
      "outputs": [
        {
          "internalType": "string",
          "name": "",
          "type": "string"
        }
      ],
      "stateMutability": "view",
      "type": "function"
    }
  ],
  "bytecode": "0x60806040523480156200001157600080fd5b5060405162001aea38038062001aea8339818101604052810190620000379190620003e0565b306000806101000a81548173ffffffffffffffffffffffffffffffffffffffff021916908373ffffffffffffffffffffffffffffffffffffffff160217905550866001908162000088919062000712565b5085600290816200009a919062000712565b508460038190555083600481905550826005819055508160068190555080600760006101000a81548173ffffffffffffffffffffffffffffffffffffffff021916908373ffffffffffffffffffffffffffffffffffffffff16021790555060008054906101000a900473ffffffffffffffffffffffffffffffffffffffff1673ffffffffffffffffffffffffffffffffffffffff167f392f38ce3f264c0d1d409cff712e573439bc2e53a7eefc647cd35819bf8012b760016002600354600454600554600654600760009054906101000a900473ffffffffffffffffffffffffffffffffffffffff16604051620001989796959493929190620008bc565b60405180910390a25050505050505062000947565b6000604051905090565b600080fd5b600080fd5b600080fd5b600080fd5b6000601f19601f8301169050919050565b7f4e487b7100000000000000000000000000000000000000000000000000000000600052604160045260246000fd5b6200021682620001cb565b810181811067ffffffffffffffff82111715620002385762000237620001dc565b5b80604052505050565b60006200024d620001ad565b90506200025b82826200020b565b919050565b600067ffffffffffffffff8211156200027e576200027d620001dc565b5b6200028982620001cb565b9050602081019050919050565b60005b83811015620002b657808201518184015260208101905062000299565b60008484015250505050565b6000620002d9620002d38462000260565b62000241565b905082815260208101848484011115620002f857620002f7620001c6565b5b6200030584828562000296565b509392505050565b600082601f830112620003255762000324620001c1565b5b815162000337848260208601620002c2565b91505092915050565b6000819050919050565b620003558162000340565b81146200036157600080fd5b50565b60008151905062000375816200034a565b92915050565b600073ffffffffffffffffffffffffffffffffffffffff82169050919050565b6000620003a8826200037b565b9050919050565b620003ba816200039b565b8114620003c657600080fd5b50565b600081519050620003da81620003af565b92915050565b600080600080600080600060e0888a031215620004025762000401620001b7565b5b600088015167ffffffffffffffff811115620004235762000422620001bc565b5b620004318a828b016200030d565b975050602088015167ffffffffffffffff811115620004555762000454620001bc565b5b620004638a828b016200030d565b9650506040620004768a828b0162000364565b9550506060620004898a828b0162000364565b94505060806200049c8a828b0162000364565b93505060a0620004af8a828b0162000364565b92505060c0620004c28a828b01620003c9565b91505092959891949750929550565b600081519050919050565b7f4e487b7100000000000000000000000000000000000000000000000000000000600052602260045260246000fd5b600060028204905060018216806200052457607f821691505b6020821081036200053a5762000539620004dc565b5b50919050565b60008190508160005260206000209050919050565b60006020601f8301049050919050565b600082821b905092915050565b600060088302620005a47fffffffffffffffffffffffffffffffffffffffffffffffffffffffffffffffff8262000565565b620005b0868362000565565b95508019841693508086168417925050509392505050565b6000819050919050565b6000620005f3620005ed620005e78462000340565b620005c8565b62000340565b9050919050565b6000819050919050565b6200060f83620005d2565b620006276200061e82620005fa565b84845462000572565b825550505050565b600090565b6200063e6200062f565b6200064b81848462000604565b505050565b5b8181101562000673576200066760008262000634565b60018101905062000651565b5050565b601f821115620006c2576200068c8162000540565b620006978462000555565b81016020851015620006a7578190505b620006bf620006b68562000555565b83018262000650565b50505b505050565b600082821c905092915050565b6000620006e760001984600802620006c7565b1980831691505092915050565b6000620007028383620006d4565b9150826002028217905092915050565b6200071d82620004d1565b67ffffffffffffffff811115620007395762000738620001dc565b5b6200074582546200050b565b6200075282828562000677565b600060209050601f8311600181146200078a576000841562000775578287015190505b620007818582620006f4565b865550620007f1565b601f1984166200079a8662000540565b60005b82811015620007c4578489015182556001820191506020850194506020810190506200079d565b86831015620007e45784890151620007e0601f891682620006d4565b8355505b6001600288020188555050505b505050505050565b600082825260208201905092915050565b6000815462000819816200050b565b620008258186620007f9565b945060018216600081146200084357600181146200085a5762000891565b60ff19831686528115156020028601935062000891565b620008658562000540565b60005b83811015620008895781548189015260018201915060208101905062000868565b808801955050505b50505092915050565b620008a58162000340565b82525050565b620008b6816200039b565b82525050565b600060e0820190508181036000830152620008d8818a6200080a565b90508181036020830152620008ee81896200080a565b9050620008ff60408301886200089a565b6200090e60608301876200089a565b6200091d60808301866200089a565b6200092c60a08301856200089a565b6200093b60c0830184620008ab565b98975050505050505050565b61119380620009576000396000f3fe608060405234801561001057600080fd5b50600436106100f55760003560e01c8063950fb37d11610097578063b84c824611610066578063b84c82461461023c578063c47f002714610258578063cfd8a17514610274578063db5ea89214610292576100f5565b8063950fb37d146101c657806395d89b41146101e4578063abdd11a814610202578063b7a8807c1461021e576100f5565b806329354cf4116100d357806329354cf4146101525780634b6753bc1461016e5780634b89c41d1461018c57806393a92e8b146101a8576100f5565b806306fdde03146100fa5780631ba46cfd1461011857806321c2868314610136575b600080fd5b6101026102b0565b60405161010f9190610876565b60405180910390f35b61012061033e565b60405161012d91906108d9565b60405180910390f35b610150600480360381019061014b919061093e565b610362565b005b61016c6004803603810190610167919061093e565b6103fc565b005b610176610496565b604051610183919061097a565b60405180910390f35b6101a660048036038101906101a1919061093e565b61049c565b005b6101b0610536565b6040516101bd919061097a565b60405180910390f35b6101ce61053c565b6040516101db91906108d9565b60405180910390f35b6101ec610562565b6040516101f99190610876565b60405180910390f35b61021c6004803603810190610217919061093e565b6105f0565b005b61022661068a565b604051610233919061097a565b60405180910390f35b61025660048036038101906102519190610aca565b610690565b005b610272600480360381019061026d9190610aca565b610733565b005b61027c6107d6565b604051610289919061097a565b60405180910390f35b61029a6107dc565b6040516102a7919061097a565b60405180910390f35b600180546102bd90610b42565b80601f01602080910402602001604051908101604052809291908181526020018280546102e990610b42565b80156103365780601f1061030b57610100808354040283529160200191610336565b820191906000526020600020905b81548152906001019060200180831161031957829003601f168201915b505050505081565b60008054906101000a900473ffffffffffffffffffffffffffffffffffffffff1681565b600760009054906101000a900473ffffffffffffffffffffffffffffffffffffffff1673ffffffffffffffffffffffffffffffffffffffff163373ffffffffffffffffffffffffffffffffffffffff16146103f2576040517f08c379a00000000000000000000000000000000000000000000000000000000081526004016103e990610be5565b60405180910390fd5b8060068190555050565b600760009054906101000a900473ffffffffffffffffffffffffffffffffffffffff1673ffffffffffffffffffffffffffffffffffffffff163373ffffffffffffffffffffffffffffffffffffffff161461048c576040517f08c379a000000000000000000000000000000000000000000000000000000000815260040161048390610c77565b60405180910390fd5b8060058190555050565b60045481565b600760009054906101000a900473ffffffffffffffffffffffffffffffffffffffff1673ffffffffffffffffffffffffffffffffffffffff163373ffffffffffffffffffffffffffffffffffffffff161461052c576040517f08c379a000000000000000000000000000000000000000000000000000000000815260040161052390610d09565b60405180910390fd5b8060048190555050565b60055481565b600760009054906101000a900473ffffffffffffffffffffffffffffffffffffffff1681565b6002805461056f90610b42565b80601f016020809104026020016040519081016040528092919081815260200182805461059b90610b42565b80156105e85780601f106105bd576101008083540402835291602001916105e8565b820191906000526020600020905b8154815290600101906020018083116105cb57829003601f168201915b505050505081565b600760009054906101000a900473ffffffffffffffffffffffffffffffffffffffff1673ffffffffffffffffffffffffffffffffffffffff163373ffffffffffffffffffffffffffffffffffffffff1614610680576040517f08c379a000000000000000000000000000000000000000000000000000000000815260040161067790610d9b565b60405180910390fd5b8060038190555050565b60035481565b600760009054906101000a900473ffffffffffffffffffffffffffffffffffffffff1673ffffffffffffffffffffffffffffffffffffffff163373ffffffffffffffffffffffffffffffffffffffff1614610720576040517f08c379a000000000000000000000000000000000000000000000000000000000815260040161071790610e2d565b60405180910390fd5b806002908161072f9190610ff9565b5050565b600760009054906101000a900473ffffffffffffffffffffffffffffffffffffffff1673ffffffffffffffffffffffffffffffffffffffff163373ffffffffffffffffffffffffffffffffffffffff16146107c3576040517f08c379a00000000000000000000000000000000000000000000000000000000081526004016107ba9061113d565b60405180910390fd5b80600190816107d29190610ff9565b5050565b60065481565b6000600654905090565b600081519050919050565b600082825260208201905092915050565b60005b83811015610820578082015181840152602081019050610805565b60008484015250505050565b6000601f19601f8301169050919050565b6000610848826107e6565b61085281856107f1565b9350610862818560208601610802565b61086b8161082c565b840191505092915050565b60006020820190508181036000830152610890818461083d565b905092915050565b600073ffffffffffffffffffffffffffffffffffffffff82169050919050565b60006108c382610898565b9050919050565b6108d3816108b8565b82525050565b60006020820190506108ee60008301846108ca565b92915050565b6000604051905090565b600080fd5b600080fd5b6000819050919050565b61091b81610908565b811461092657600080fd5b50565b60008135905061093881610912565b92915050565b600060208284031215610954576109536108fe565b5b600061096284828501610929565b91505092915050565b61097481610908565b82525050565b600060208201905061098f600083018461096b565b92915050565b600080fd5b600080fd5b7f4e487b7100000000000000000000000000000000000000000000000000000000600052604160045260246000fd5b6109d78261082c565b810181811067ffffffffffffffff821117156109f6576109f561099f565b5b80604052505050565b6000610a096108f4565b9050610a1582826109ce565b919050565b600067ffffffffffffffff821115610a3557610a3461099f565b5b610a3e8261082c565b9050602081019050919050565b82818337600083830152505050565b6000610a6d610a6884610a1a565b6109ff565b905082815260208101848484011115610a8957610a8861099a565b5b610a94848285610a4b565b509392505050565b600082601f830112610ab157610ab0610995565b5b8135610ac1848260208601610a5a565b91505092915050565b600060208284031215610ae057610adf6108fe565b5b600082013567ffffffffffffffff811115610afe57610afd610903565b5b610b0a84828501610a9c565b91505092915050565b7f4e487b7100000000000000000000000000000000000000000000000000000000600052602260045260246000fd5b60006002820490506001821680610b5a57607f821691505b602082108103610b6d57610b6c610b13565b5b50919050565b7f4f6e6c79206265745365747465722063616e207570646174652074686520626560008201527f7420707269636500000000000000000000000000000000000000000000000000602082015250565b6000610bcf6027836107f1565b9150610bda82610b73565b604082019050919050565b60006020820190508181036000830152610bfe81610bc2565b9050919050565b7f4f6e6c79206265745365747465722063616e207570646174652074686520726560008201527f73756c742074696d650000000000000000000000000000000000000000000000602082015250565b6000610c616029836107f1565b9150610c6c82610c05565b604082019050919050565b60006020820190508181036000830152610c9081610c54565b9050919050565b7f4f6e6c79206265745365747465722063616e207570646174652074686520636c60008201527f6f73696e672074696d6500000000000000000000000000000000000000000000602082015250565b6000610cf3602a836107f1565b9150610cfe82610c97565b604082019050919050565b60006020820190508181036000830152610d2281610ce6565b9050919050565b7f4f6e6c79206265745365747465722063616e2075706461746520746865206f7060008201527f656e696e672074696d6500000000000000000000000000000000000000000000602082015250565b6000610d85602a836107f1565b9150610d9082610d29565b604082019050919050565b60006020820190508181036000830152610db481610d78565b9050919050565b7f4f6e6c79206265745365747465722063616e207570646174652074686520737960008201527f6d626f6c00000000000000000000000000000000000000000000000000000000602082015250565b6000610e176024836107f1565b9150610e2282610dbb565b604082019050919050565b60006020820190508181036000830152610e4681610e0a565b9050919050565b60008190508160005260206000209050919050565b60006020601f8301049050919050565b600082821b905092915050565b600060088302610eaf7fffffffffffffffffffffffffffffffffffffffffffffffffffffffffffffffff82610e72565b610eb98683610e72565b95508019841693508086168417925050509392505050565b6000819050919050565b6000610ef6610ef1610eec84610908565b610ed1565b610908565b9050919050565b6000819050919050565b610f1083610edb565b610f24610f1c82610efd565b848454610e7f565b825550505050565b600090565b610f39610f2c565b610f44818484610f07565b505050565b5b81811015610f6857610f5d600082610f31565b600181019050610f4a565b5050565b601f821115610fad57610f7e81610e4d565b610f8784610e62565b81016020851015610f96578190505b610faa610fa285610e62565b830182610f49565b50505b505050565b600082821c905092915050565b6000610fd060001984600802610fb2565b1980831691505092915050565b6000610fe98383610fbf565b9150826002028217905092915050565b611002826107e6565b67ffffffffffffffff81111561101b5761101a61099f565b5b6110258254610b42565b611030828285610f6c565b600060209050601f8311600181146110635760008415611051578287015190505b61105b8582610fdd565b8655506110c3565b601f19841661107186610e4d565b60005b8281101561109957848901518255600182019150602085019450602081019050611074565b868310156110b657848901516110b2601f891682610fbf565b8355505b6001600288020188555050505b505050505050565b7f4f6e6c79206265745365747465722063616e2075706461746520746865206e6160008201527f6d65000000000000000000000000000000000000000000000000000000000000602082015250565b60006111276022836107f1565b9150611132826110cb565b604082019050919050565b600060208201905081810360008301526111568161111a565b905091905056fea2646970667358221220550ce54452e4284f8215ae6662916cd8e75471cd44a7b016de40500fe513fa6d64736f6c63430008180033",
  "linkReferences": {},
  "deployedLinkReferences": {}
}