{
  "_format": "hh-sol-artifact-1",
  "contractName": "Bet",
  "sourceName": "contracts/Bet.sol",
  "abi": [
    {
      "inputs": [
        {
          "internalType": "address",
          "name": "_assetManagerAddress",
          "type": "address"
        },
        {
          "internalType": "address",
          "name": "_priceFeed",
          "type": "address"
        }
      ],
      "stateMutability": "nonpayable",
      "type": "constructor"
    },
    {
      "inputs": [
        {
          "internalType": "uint256",
          "name": "sent",
          "type": "uint256"
        },
        {
          "internalType": "uint256",
          "name": "required",
          "type": "uint256"
        }
      ],
      "name": "IncorrectPaymentAmount",
      "type": "error"
    },
    {
      "anonymous": false,
      "inputs": [
        {
          "indexed": true,
          "internalType": "address",
          "name": "userAddress",
          "type": "address"
        },
        {
          "indexed": true,
          "internalType": "address",
          "name": "assetAddress",
          "type": "address"
        },
        {
          "indexed": false,
          "internalType": "uint256",
          "name": "amountPaid",
          "type": "uint256"
        },
        {
          "indexed": false,
          "internalType": "uint256",
          "name": "estimate",
          "type": "uint256"
        }
      ],
      "name": "BetPlaced",
      "type": "event"
    },
    {
      "anonymous": false,
      "inputs": [
        {
          "indexed": true,
          "internalType": "address",
          "name": "sender",
          "type": "address"
        },
        {
          "indexed": false,
          "internalType": "uint256",
          "name": "amount",
          "type": "uint256"
        }
      ],
      "name": "Deposit",
      "type": "event"
    },
    {
      "anonymous": false,
      "inputs": [
        {
          "indexed": true,
          "internalType": "address",
          "name": "assetAddress",
          "type": "address"
        },
        {
          "indexed": true,
          "internalType": "address",
          "name": "address1",
          "type": "address"
        },
        {
          "indexed": true,
          "internalType": "address",
          "name": "address2",
          "type": "address"
        },
        {
          "indexed": false,
          "internalType": "uint256",
          "name": "amount1",
          "type": "uint256"
        },
        {
          "indexed": false,
          "internalType": "uint256",
          "name": "amount2",
          "type": "uint256"
        },
        {
          "indexed": false,
          "internalType": "uint256",
          "name": "amount3",
          "type": "uint256"
        }
      ],
      "name": "FundsDistributed",
      "type": "event"
    },
    {
      "inputs": [
        {
          "internalType": "address",
          "name": "",
          "type": "address"
        }
      ],
      "name": "assetBalances",
      "outputs": [
        {
          "internalType": "uint256",
          "name": "",
          "type": "uint256"
        }
      ],
      "stateMutability": "view",
      "type": "function"
    },
    {
      "inputs": [],
      "name": "assetManager",
      "outputs": [
        {
          "internalType": "contract AssetManager",
          "name": "",
          "type": "address"
        }
      ],
      "stateMutability": "view",
      "type": "function"
    },
    {
      "inputs": [
        {
          "internalType": "uint256",
          "name": "",
          "type": "uint256"
        }
      ],
      "name": "bets",
      "outputs": [
        {
          "internalType": "address",
          "name": "userAddress",
          "type": "address"
        },
        {
          "internalType": "address",
          "name": "assetAddress",
          "type": "address"
        },
        {
          "internalType": "uint256",
          "name": "amountPaid",
          "type": "uint256"
        },
        {
          "internalType": "uint256",
          "name": "estimate",
          "type": "uint256"
        },
        {
          "internalType": "uint256",
          "name": "winningAmount",
          "type": "uint256"
        }
      ],
      "stateMutability": "view",
      "type": "function"
    },
    {
      "inputs": [],
      "name": "betsLength",
      "outputs": [
        {
          "internalType": "uint256",
          "name": "",
          "type": "uint256"
        }
      ],
      "stateMutability": "view",
      "type": "function"
    },
    {
      "inputs": [
        {
          "internalType": "address",
          "name": "assetAddress",
          "type": "address"
        }
      ],
      "name": "distributeFunds",
      "outputs": [],
      "stateMutability": "nonpayable",
      "type": "function"
    },
    {
      "inputs": [
        {
          "internalType": "address",
          "name": "assetAddress",
          "type": "address"
        }
      ],
      "name": "getAssetBalance",
      "outputs": [
        {
          "internalType": "uint256",
          "name": "",
          "type": "uint256"
        }
      ],
      "stateMutability": "view",
      "type": "function"
    },
    {
      "inputs": [],
      "name": "getBalance",
      "outputs": [
        {
          "internalType": "uint256",
          "name": "",
          "type": "uint256"
        }
      ],
      "stateMutability": "view",
      "type": "function"
    },
    {
      "inputs": [
        {
          "internalType": "uint256",
          "name": "index",
          "type": "uint256"
        }
      ],
      "name": "getBet",
      "outputs": [
        {
          "internalType": "address",
          "name": "",
          "type": "address"
        },
        {
          "internalType": "address",
          "name": "",
          "type": "address"
        },
        {
          "internalType": "uint256",
          "name": "",
          "type": "uint256"
        },
        {
          "internalType": "uint256",
          "name": "",
          "type": "uint256"
        },
        {
          "internalType": "uint256",
          "name": "",
          "type": "uint256"
        }
      ],
      "stateMutability": "view",
      "type": "function"
    },
    {
      "inputs": [
        {
          "internalType": "string",
          "name": "symbol",
          "type": "string"
        }
      ],
      "name": "getPrice",
      "outputs": [
        {
          "internalType": "int256",
          "name": "",
          "type": "int256"
        }
      ],
      "stateMutability": "view",
      "type": "function"
    },
    {
      "inputs": [
        {
          "internalType": "address",
          "name": "user",
          "type": "address"
        }
      ],
      "name": "getUserBets",
      "outputs": [
        {
          "components": [
            {
              "internalType": "address",
              "name": "userAddress",
              "type": "address"
            },
            {
              "internalType": "address",
              "name": "assetAddress",
              "type": "address"
            },
            {
              "internalType": "uint256",
              "name": "amountPaid",
              "type": "uint256"
            },
            {
              "internalType": "uint256",
              "name": "estimate",
              "type": "uint256"
            },
            {
              "internalType": "uint256",
              "name": "winningAmount",
              "type": "uint256"
            }
          ],
          "internalType": "struct Bet.BetInfo[]",
          "name": "",
          "type": "tuple[]"
        }
      ],
      "stateMutability": "view",
      "type": "function"
    },
    {
      "inputs": [],
      "name": "priceFeed",
      "outputs": [
        {
          "internalType": "contract PriceFeed",
          "name": "",
          "type": "address"
        }
      ],
      "stateMutability": "view",
      "type": "function"
    },
    {
      "inputs": [
        {
          "internalType": "address",
          "name": "assetAddress",
          "type": "address"
        },
        {
          "internalType": "uint256",
          "name": "estimate",
          "type": "uint256"
        }
      ],
      "name": "setBet",
      "outputs": [],
      "stateMutability": "payable",
      "type": "function"
    },
    {
      "inputs": [],
      "name": "totalBalance",
      "outputs": [
        {
          "internalType": "uint256",
          "name": "",
          "type": "uint256"
        }
      ],
      "stateMutability": "view",
      "type": "function"
    },
    {
      "inputs": [
        {
          "internalType": "uint256",
          "name": "index",
          "type": "uint256"
        },
        {
          "internalType": "uint256",
          "name": "winningAmount",
          "type": "uint256"
        }
      ],
      "name": "updateWinningAmount",
      "outputs": [],
      "stateMutability": "nonpayable",
      "type": "function"
    },
    {
      "stateMutability": "payable",
      "type": "receive"
    }
  ],
  "bytecode": "0x60806040523480156200001157600080fd5b5060405162002e9638038062002e9683398181016040528101906200003791906200012b565b81600160006101000a81548173ffffffffffffffffffffffffffffffffffffffff021916908373ffffffffffffffffffffffffffffffffffffffff16021790555080600260006101000a81548173ffffffffffffffffffffffffffffffffffffffff021916908373ffffffffffffffffffffffffffffffffffffffff160217905550505062000172565b600080fd5b600073ffffffffffffffffffffffffffffffffffffffff82169050919050565b6000620000f382620000c6565b9050919050565b6200010581620000e6565b81146200011157600080fd5b50565b6000815190506200012581620000fa565b92915050565b60008060408385031215620001455762000144620000c1565b5b6000620001558582860162000114565b9250506020620001688582860162000114565b9150509250929050565b612d1480620001826000396000f3fe6080604052600436106100e15760003560e01c8063656b18531161007f57806394217ad11161005957806394217ad114610365578063a26f33a614610390578063ad7a672f146103b9578063bbd2e01e146103e45761014f565b8063656b1853146102e1578063741bef1a146102fd578063867c1247146103285761014f565b80632d56657d116100bb5780632d56657d1461020157806343a2a0d51461023e578063524f3889146102675780635373433f146102a45761014f565b8063061e494f1461015457806312065fe01461019557806322af00fa146101c05761014f565b3661014f5734600360008282546100f89190611c87565b925050819055503373ffffffffffffffffffffffffffffffffffffffff167fe1fffcc4923d04b559f4d29a8bfc6cda04eb5b0d3c460751c2402c5c5cc9109c346040516101459190611cca565b60405180910390a2005b600080fd5b34801561016057600080fd5b5061017b60048036038101906101769190611d25565b61040f565b60405161018c959493929190611d93565b60405180910390f35b3480156101a157600080fd5b506101aa6104ef565b6040516101b79190611cca565b60405180910390f35b3480156101cc57600080fd5b506101e760048036038101906101e29190611d25565b6104f9565b6040516101f8959493929190611d93565b60405180910390f35b34801561020d57600080fd5b5061022860048036038101906102239190611e12565b61057f565b6040516102359190611f74565b60405180910390f35b34801561024a57600080fd5b5061026560048036038101906102609190611e12565b610845565b005b34801561027357600080fd5b5061028e600480360381019061028991906120dc565b6110d6565b60405161029b919061213e565b60405180910390f35b3480156102b057600080fd5b506102cb60048036038101906102c69190611e12565b61117b565b6040516102d89190611cca565b60405180910390f35b6102fb60048036038101906102f69190612159565b6111c4565b005b34801561030957600080fd5b506103126115c6565b60405161031f91906121f8565b60405180910390f35b34801561033457600080fd5b5061034f600480360381019061034a9190611e12565b6115ec565b60405161035c9190611cca565b60405180910390f35b34801561037157600080fd5b5061037a611604565b6040516103879190612234565b60405180910390f35b34801561039c57600080fd5b506103b760048036038101906103b2919061224f565b61162a565b005b3480156103c557600080fd5b506103ce611736565b6040516103db9190611cca565b60405180910390f35b3480156103f057600080fd5b506103f961173c565b6040516104069190611cca565b60405180910390f35b60008060008060008080549050861061045d576040517f08c379a0000000000000000000000000000000000000000000000000000000008152600401610454906122ec565b60405180910390fd5b60008087815481106104725761047161230c565b5b906000526020600020906005020190508060000160009054906101000a900473ffffffffffffffffffffffffffffffffffffffff168160010160009054906101000a900473ffffffffffffffffffffffffffffffffffffffff16826002015483600301548460040154955095509550955095505091939590929450565b6000600354905090565b6000818154811061050957600080fd5b90600052602060002090600502016000915090508060000160009054906101000a900473ffffffffffffffffffffffffffffffffffffffff16908060010160009054906101000a900473ffffffffffffffffffffffffffffffffffffffff16908060020154908060030154908060040154905085565b60606000805b600080549050811015610626578373ffffffffffffffffffffffffffffffffffffffff16600082815481106105bd576105bc61230c565b5b906000526020600020906005020160000160009054906101000a900473ffffffffffffffffffffffffffffffffffffffff1673ffffffffffffffffffffffffffffffffffffffff16036106195781806106159061233b565b9250505b8080600101915050610585565b5060008167ffffffffffffffff81111561064357610642611fb1565b5b60405190808252806020026020018201604052801561067c57816020015b610669611bf3565b8152602001906001900390816106615790505b5090506000805b600080549050811015610839578573ffffffffffffffffffffffffffffffffffffffff16600082815481106106bb576106ba61230c565b5b906000526020600020906005020160000160009054906101000a900473ffffffffffffffffffffffffffffffffffffffff1673ffffffffffffffffffffffffffffffffffffffff160361082c576000818154811061071c5761071b61230c565b5b90600052602060002090600502016040518060a00160405290816000820160009054906101000a900473ffffffffffffffffffffffffffffffffffffffff1673ffffffffffffffffffffffffffffffffffffffff1673ffffffffffffffffffffffffffffffffffffffff1681526020016001820160009054906101000a900473ffffffffffffffffffffffffffffffffffffffff1673ffffffffffffffffffffffffffffffffffffffff1673ffffffffffffffffffffffffffffffffffffffff16815260200160028201548152602001600382015481526020016004820154815250508383815181106108125761081161230c565b5b602002602001018190525081806108289061233b565b9250505b8080600101915050610683565b50819350505050919050565b6000600160009054906101000a900473ffffffffffffffffffffffffffffffffffffffff1673ffffffffffffffffffffffffffffffffffffffff16639c9b6451836040518263ffffffff1660e01b81526004016108a29190612383565b600060405180830381865afa1580156108bf573d6000803e3d6000fd5b505050506040513d6000823e3d601f19601f820116820180604052508101906108e89190612462565b505050505091505060006108fb826110d6565b90506000600460008573ffffffffffffffffffffffffffffffffffffffff1673ffffffffffffffffffffffffffffffffffffffff16815260200190815260200160002054905060008111610984576040517f08c379a000000000000000000000000000000000000000000000000000000000815260040161097b906125ae565b60405180910390fd5b600061098f85611748565b90506000815167ffffffffffffffff8111156109ae576109ad611fb1565b5b6040519080825280602002602001820160405280156109dc5781602001602082028036833780820191505090505b5090506001825103610b2c576000839050600083600081518110610a0357610a0261230c565b5b60200260200101516000015190508073ffffffffffffffffffffffffffffffffffffffff166108fc839081150290604051600060405180830381858888f19350505050610a85576040517f08c379a0000000000000000000000000000000000000000000000000000000008152600401610a7c90612640565b60405180910390fd5b600073ffffffffffffffffffffffffffffffffffffffff168173ffffffffffffffffffffffffffffffffffffffff168973ffffffffffffffffffffffffffffffffffffffff167f4a88bd679da4aaee6664a8e505eb8eaa53f983a1c99740536e734e6e31dc08d885600080604051610aff9392919061269b565b60405180910390a48460036000828254610b1991906126d2565b92505081905550505050505050506110d3565b60005b8251811015610b8e5784838281518110610b4c57610b4b61230c565b5b602002602001015160600151610b629190612706565b828281518110610b7557610b7461230c565b5b6020026020010181815250508080600101915050610b2f565b5060005b8151811015610c0f576000828281518110610bb057610baf61230c565b5b60200260200101511215610c0257818181518110610bd157610bd061230c565b5b6020026020010151610be290612749565b828281518110610bf557610bf461230c565b5b6020026020010181815250505b8080600101915050610b92565b506000610c1b82611a0e565b905060006064603286610c2e9190612791565b610c389190612802565b905060006064601487610c4b9190612791565b610c559190612802565b90506000600460008b73ffffffffffffffffffffffffffffffffffffffff1673ffffffffffffffffffffffffffffffffffffffff168152602001908152602001600020819055506000821115610d53578483600081518110610cba57610cb961230c565b5b602002602001015181518110610cd357610cd261230c565b5b60200260200101516000015173ffffffffffffffffffffffffffffffffffffffff166108fc839081150290604051600060405180830381858888f19350505050610d52576040517f08c379a0000000000000000000000000000000000000000000000000000000008152600401610d49906128a5565b60405180910390fd5b5b6000811115610e0a578483600181518110610d7157610d7061230c565b5b602002602001015181518110610d8a57610d8961230c565b5b60200260200101516000015173ffffffffffffffffffffffffffffffffffffffff166108fc829081150290604051600060405180830381858888f19350505050610e09576040517f08c379a0000000000000000000000000000000000000000000000000000000008152600401610e0090612937565b60405180910390fd5b5b6000600160009054906101000a900473ffffffffffffffffffffffffffffffffffffffff1673ffffffffffffffffffffffffffffffffffffffff16639c9b64518b6040518263ffffffff1660e01b8152600401610e679190612383565b600060405180830381865afa158015610e84573d6000803e3d6000fd5b505050506040513d6000823e3d601f19601f82011682018060405250810190610ead9190612462565b9650505050505050600073ffffffffffffffffffffffffffffffffffffffff168173ffffffffffffffffffffffffffffffffffffffff1603610f24576040517f08c379a0000000000000000000000000000000000000000000000000000000008152600401610f1b906129a3565b60405180910390fd5b6000828489610f3391906126d2565b610f3d91906126d2565b90506000811115610fbd578173ffffffffffffffffffffffffffffffffffffffff166108fc829081150290604051600060405180830381858888f19350505050610fbc576040517f08c379a0000000000000000000000000000000000000000000000000000000008152600401610fb390612a35565b60405180910390fd5b5b8685600181518110610fd257610fd161230c565b5b602002602001015181518110610feb57610fea61230c565b5b60200260200101516000015173ffffffffffffffffffffffffffffffffffffffff1687866000815181106110225761102161230c565b5b60200260200101518151811061103b5761103a61230c565b5b60200260200101516000015173ffffffffffffffffffffffffffffffffffffffff168c73ffffffffffffffffffffffffffffffffffffffff167f4a88bd679da4aaee6664a8e505eb8eaa53f983a1c99740536e734e6e31dc08d88787866040516110a793929190612a55565b60405180910390a487600360008282546110c191906126d2565b92505081905550505050505050505050505b50565b6000600260009054906101000a900473ffffffffffffffffffffffffffffffffffffffff1673ffffffffffffffffffffffffffffffffffffffff1663f66a1b71836040518263ffffffff1660e01b81526004016111339190612ad0565b602060405180830381865afa158015611150573d6000803e3d6000fd5b505050506040513d601f19601f820116820180604052508101906111749190612b1e565b9050919050565b6000600460008373ffffffffffffffffffffffffffffffffffffffff1673ffffffffffffffffffffffffffffffffffffffff168152602001908152602001600020549050919050565b600080600160009054906101000a900473ffffffffffffffffffffffffffffffffffffffff1673ffffffffffffffffffffffffffffffffffffffff16639c9b6451856040518263ffffffff1660e01b81526004016112229190612383565b600060405180830381865afa15801561123f573d6000803e3d6000fd5b505050506040513d6000823e3d601f19601f820116820180604052508101906112689190612462565b965096505050505050600082116112b4576040517f08c379a00000000000000000000000000000000000000000000000000000000081526004016112ab90612b97565b60405180910390fd5b600073ffffffffffffffffffffffffffffffffffffffff168173ffffffffffffffffffffffffffffffffffffffff1603611323576040517f08c379a000000000000000000000000000000000000000000000000000000000815260040161131a90612c03565b60405180910390fd5b8134146113695734826040517f47af6acc000000000000000000000000000000000000000000000000000000008152600401611360929190612c23565b60405180910390fd5b60006040518060a001604052803373ffffffffffffffffffffffffffffffffffffffff1681526020018673ffffffffffffffffffffffffffffffffffffffff16815260200134815260200185815260200160008152509050600081908060018154018082558091505060019003906000526020600020906005020160009091909190915060008201518160000160006101000a81548173ffffffffffffffffffffffffffffffffffffffff021916908373ffffffffffffffffffffffffffffffffffffffff16021790555060208201518160010160006101000a81548173ffffffffffffffffffffffffffffffffffffffff021916908373ffffffffffffffffffffffffffffffffffffffff160217905550604082015181600201556060820151816003015560808201518160040155505034600360008282546114ad9190611c87565b9250508190555034600460008773ffffffffffffffffffffffffffffffffffffffff1673ffffffffffffffffffffffffffffffffffffffff16815260200190815260200160002060008282546115039190611c87565b925050819055508473ffffffffffffffffffffffffffffffffffffffff163373ffffffffffffffffffffffffffffffffffffffff167f61e034d80d9bd9b8dcd5d07434c03615017de4a6a229fe18bb93863bd20341a83487604051611569929190612c23565b60405180910390a33373ffffffffffffffffffffffffffffffffffffffff167fe1fffcc4923d04b559f4d29a8bfc6cda04eb5b0d3c460751c2402c5c5cc9109c346040516115b79190611cca565b60405180910390a25050505050565b600260009054906101000a900473ffffffffffffffffffffffffffffffffffffffff1681565b60046020528060005260406000206000915090505481565b600160009054906101000a900473ffffffffffffffffffffffffffffffffffffffff1681565b6000805490508210611671576040517f08c379a0000000000000000000000000000000000000000000000000000000008152600401611668906122ec565b60405180910390fd5b60008083815481106116865761168561230c565b5b906000526020600020906005020190503373ffffffffffffffffffffffffffffffffffffffff168160000160009054906101000a900473ffffffffffffffffffffffffffffffffffffffff1673ffffffffffffffffffffffffffffffffffffffff1614611728576040517f08c379a000000000000000000000000000000000000000000000000000000000815260040161171f90612cbe565b60405180910390fd5b818160040181905550505050565b60035481565b60008080549050905090565b60606000805b6000805490508110156117ef578373ffffffffffffffffffffffffffffffffffffffff16600082815481106117865761178561230c565b5b906000526020600020906005020160010160009054906101000a900473ffffffffffffffffffffffffffffffffffffffff1673ffffffffffffffffffffffffffffffffffffffff16036117e25781806117de9061233b565b9250505b808060010191505061174e565b5060008167ffffffffffffffff81111561180c5761180b611fb1565b5b60405190808252806020026020018201604052801561184557816020015b611832611bf3565b81526020019060019003908161182a5790505b5090506000805b600080549050811015611a02578573ffffffffffffffffffffffffffffffffffffffff16600082815481106118845761188361230c565b5b906000526020600020906005020160010160009054906101000a900473ffffffffffffffffffffffffffffffffffffffff1673ffffffffffffffffffffffffffffffffffffffff16036119f557600081815481106118e5576118e461230c565b5b90600052602060002090600502016040518060a00160405290816000820160009054906101000a900473ffffffffffffffffffffffffffffffffffffffff1673ffffffffffffffffffffffffffffffffffffffff1673ffffffffffffffffffffffffffffffffffffffff1681526020016001820160009054906101000a900473ffffffffffffffffffffffffffffffffffffffff1673ffffffffffffffffffffffffffffffffffffffff1673ffffffffffffffffffffffffffffffffffffffff16815260200160028201548152602001600382015481526020016004820154815250508383815181106119db576119da61230c565b5b602002602001018190525081806119f19061233b565b9250505b808060010191505061184c565b50819350505050919050565b606060008251905060008167ffffffffffffffff811115611a3257611a31611fb1565b5b604051908082528060200260200182016040528015611a605781602001602082028036833780820191505090505b50905060005b82811015611a9b5780828281518110611a8257611a8161230c565b5b6020026020010181815250508080600101915050611a66565b5060005b82811015611be85760005b600184611ab791906126d2565b811015611bda578583600183611acd9190611c87565b81518110611ade57611add61230c565b5b602002602001015181518110611af757611af661230c565b5b602002602001015186848381518110611b1357611b1261230c565b5b602002602001015181518110611b2c57611b2b61230c565b5b60200260200101511315611bcd576000838281518110611b4f57611b4e61230c565b5b6020026020010151905083600183611b679190611c87565b81518110611b7857611b7761230c565b5b6020026020010151848381518110611b9357611b9261230c565b5b6020026020010181815250508084600184611bae9190611c87565b81518110611bbf57611bbe61230c565b5b602002602001018181525050505b8080600101915050611aaa565b508080600101915050611a9f565b508092505050919050565b6040518060a00160405280600073ffffffffffffffffffffffffffffffffffffffff168152602001600073ffffffffffffffffffffffffffffffffffffffff1681526020016000815260200160008152602001600081525090565b6000819050919050565b7f4e487b7100000000000000000000000000000000000000000000000000000000600052601160045260246000fd5b6000611c9282611c4e565b9150611c9d83611c4e565b9250828201905080821115611cb557611cb4611c58565b5b92915050565b611cc481611c4e565b82525050565b6000602082019050611cdf6000830184611cbb565b92915050565b6000604051905090565b600080fd5b600080fd5b611d0281611c4e565b8114611d0d57600080fd5b50565b600081359050611d1f81611cf9565b92915050565b600060208284031215611d3b57611d3a611cef565b5b6000611d4984828501611d10565b91505092915050565b600073ffffffffffffffffffffffffffffffffffffffff82169050919050565b6000611d7d82611d52565b9050919050565b611d8d81611d72565b82525050565b600060a082019050611da86000830188611d84565b611db56020830187611d84565b611dc26040830186611cbb565b611dcf6060830185611cbb565b611ddc6080830184611cbb565b9695505050505050565b611def81611d72565b8114611dfa57600080fd5b50565b600081359050611e0c81611de6565b92915050565b600060208284031215611e2857611e27611cef565b5b6000611e3684828501611dfd565b91505092915050565b600081519050919050565b600082825260208201905092915050565b6000819050602082019050919050565b611e7481611d72565b82525050565b611e8381611c4e565b82525050565b60a082016000820151611e9f6000850182611e6b565b506020820151611eb26020850182611e6b565b506040820151611ec56040850182611e7a565b506060820151611ed86060850182611e7a565b506080820151611eeb6080850182611e7a565b50505050565b6000611efd8383611e89565b60a08301905092915050565b6000602082019050919050565b6000611f2182611e3f565b611f2b8185611e4a565b9350611f3683611e5b565b8060005b83811015611f67578151611f4e8882611ef1565b9750611f5983611f09565b925050600181019050611f3a565b5085935050505092915050565b60006020820190508181036000830152611f8e8184611f16565b905092915050565b600080fd5b600080fd5b6000601f19601f8301169050919050565b7f4e487b7100000000000000000000000000000000000000000000000000000000600052604160045260246000fd5b611fe982611fa0565b810181811067ffffffffffffffff8211171561200857612007611fb1565b5b80604052505050565b600061201b611ce5565b90506120278282611fe0565b919050565b600067ffffffffffffffff82111561204757612046611fb1565b5b61205082611fa0565b9050602081019050919050565b82818337600083830152505050565b600061207f61207a8461202c565b612011565b90508281526020810184848401111561209b5761209a611f9b565b5b6120a684828561205d565b509392505050565b600082601f8301126120c3576120c2611f96565b5b81356120d384826020860161206c565b91505092915050565b6000602082840312156120f2576120f1611cef565b5b600082013567ffffffffffffffff8111156121105761210f611cf4565b5b61211c848285016120ae565b91505092915050565b6000819050919050565b61213881612125565b82525050565b6000602082019050612153600083018461212f565b92915050565b600080604083850312156121705761216f611cef565b5b600061217e85828601611dfd565b925050602061218f85828601611d10565b9150509250929050565b6000819050919050565b60006121be6121b96121b484611d52565b612199565b611d52565b9050919050565b60006121d0826121a3565b9050919050565b60006121e2826121c5565b9050919050565b6121f2816121d7565b82525050565b600060208201905061220d60008301846121e9565b92915050565b600061221e826121c5565b9050919050565b61222e81612213565b82525050565b60006020820190506122496000830184612225565b92915050565b6000806040838503121561226657612265611cef565b5b600061227485828601611d10565b925050602061228585828601611d10565b9150509250929050565b600082825260208201905092915050565b7f42657420696e646578206f7574206f6620626f756e6473000000000000000000600082015250565b60006122d660178361228f565b91506122e1826122a0565b602082019050919050565b60006020820190508181036000830152612305816122c9565b9050919050565b7f4e487b7100000000000000000000000000000000000000000000000000000000600052603260045260246000fd5b600061234682611c4e565b91507fffffffffffffffffffffffffffffffffffffffffffffffffffffffffffffffff820361237857612377611c58565b5b600182019050919050565b60006020820190506123986000830184611d84565b92915050565b60005b838110156123bc5780820151818401526020810190506123a1565b60008484015250505050565b60006123db6123d68461202c565b612011565b9050828152602081018484840111156123f7576123f6611f9b565b5b61240284828561239e565b509392505050565b600082601f83011261241f5761241e611f96565b5b815161242f8482602086016123c8565b91505092915050565b60008151905061244781611cf9565b92915050565b60008151905061245c81611de6565b92915050565b600080600080600080600060e0888a03121561248157612480611cef565b5b600088015167ffffffffffffffff81111561249f5761249e611cf4565b5b6124ab8a828b0161240a565b975050602088015167ffffffffffffffff8111156124cc576124cb611cf4565b5b6124d88a828b0161240a565b96505060406124e98a828b01612438565b95505060606124fa8a828b01612438565b945050608061250b8a828b01612438565b93505060a061251c8a828b01612438565b92505060c061252d8a828b0161244d565b91505092959891949750929550565b7f4e6f2066756e647320746f206469737472696275746520666f7220746869732060008201527f6173736574000000000000000000000000000000000000000000000000000000602082015250565b600061259860258361228f565b91506125a38261253c565b604082019050919050565b600060208201905081810360008301526125c78161258b565b9050919050565b7f4661696c656420746f207472616e736665722066756e647320746f206265747460008201527f6572000000000000000000000000000000000000000000000000000000000000602082015250565b600061262a60228361228f565b9150612635826125ce565b604082019050919050565b600060208201905081810360008301526126598161261d565b9050919050565b6000819050919050565b600061268561268061267b84612660565b612199565b611c4e565b9050919050565b6126958161266a565b82525050565b60006060820190506126b06000830186611cbb565b6126bd602083018561268c565b6126ca604083018461268c565b949350505050565b60006126dd82611c4e565b91506126e883611c4e565b9250828203905081811115612700576126ff611c58565b5b92915050565b600061271182612125565b915061271c83612125565b925082820390508181126000841216828213600085121516171561274357612742611c58565b5b92915050565b600061275482612125565b91507f8000000000000000000000000000000000000000000000000000000000000000820361278657612785611c58565b5b816000039050919050565b600061279c82611c4e565b91506127a783611c4e565b92508282026127b581611c4e565b915082820484148315176127cc576127cb611c58565b5b5092915050565b7f4e487b7100000000000000000000000000000000000000000000000000000000600052601260045260246000fd5b600061280d82611c4e565b915061281883611c4e565b925082612828576128276127d3565b5b828204905092915050565b7f4661696c656420746f207472616e736665722066756e647320746f206669727360008201527f7420706c61636500000000000000000000000000000000000000000000000000602082015250565b600061288f60278361228f565b915061289a82612833565b604082019050919050565b600060208201905081810360008301526128be81612882565b9050919050565b7f4661696c656420746f207472616e736665722066756e647320746f207365636f60008201527f6e6420706c616365000000000000000000000000000000000000000000000000602082015250565b600061292160288361228f565b915061292c826128c5565b604082019050919050565b6000602082019050818103600083015261295081612914565b9050919050565b7f496e76616c696420626574207365747465722061646472657373000000000000600082015250565b600061298d601a8361228f565b915061299882612957565b602082019050919050565b600060208201905081810360008301526129bc81612980565b9050919050565b7f4661696c656420746f207472616e736665722066756e647320746f206265745360008201527f6574746572000000000000000000000000000000000000000000000000000000602082015250565b6000612a1f60258361228f565b9150612a2a826129c3565b604082019050919050565b60006020820190508181036000830152612a4e81612a12565b9050919050565b6000606082019050612a6a6000830186611cbb565b612a776020830185611cbb565b612a846040830184611cbb565b949350505050565b600081519050919050565b6000612aa282612a8c565b612aac818561228f565b9350612abc81856020860161239e565b612ac581611fa0565b840191505092915050565b60006020820190508181036000830152612aea8184612a97565b905092915050565b612afb81612125565b8114612b0657600080fd5b50565b600081519050612b1881612af2565b92915050565b600060208284031215612b3457612b33611cef565b5b6000612b4284828501612b09565b91505092915050565b7f426574207072696365206973206e6f7420736574206f7220696e76616c696400600082015250565b6000612b81601f8361228f565b9150612b8c82612b4b565b602082019050919050565b60006020820190508181036000830152612bb081612b74565b9050919050565b7f496e76616c696420626574207365747465720000000000000000000000000000600082015250565b6000612bed60128361228f565b9150612bf882612bb7565b602082019050919050565b60006020820190508181036000830152612c1c81612be0565b9050919050565b6000604082019050612c386000830185611cbb565b612c456020830184611cbb565b9392505050565b7f4e6f7420617574686f72697a656420746f20757064617465207468697320626560008201527f7400000000000000000000000000000000000000000000000000000000000000602082015250565b6000612ca860218361228f565b9150612cb382612c4c565b604082019050919050565b60006020820190508181036000830152612cd781612c9b565b905091905056fea264697066735822122061f12232b678f1c46f3fd6c1b4a8be14010224e6896331bc2ec44000cb62ec9164736f6c63430008180033",
  "linkReferences": {},
  "deployedLinkReferences": {}
}