{
  "_format": "hh-sol-artifact-1",
  "contractName": "PriceFeed",
  "sourceName": "contracts/PriceFeed.sol",
  "abi": [
    {
      "inputs": [],
      "stateMutability": "nonpayable",
      "type": "constructor"
    },
    {
      "anonymous": false,
      "inputs": [
        {
          "indexed": false,
          "internalType": "string",
          "name": "symbol",
          "type": "string"
        },
        {
          "indexed": false,
          "internalType": "address",
          "name": "priceFeedAddress",
          "type": "address"
        }
      ],
      "name": "PriceFeedAdded",
      "type": "event"
    },
    {
      "anonymous": false,
      "inputs": [
        {
          "indexed": false,
          "internalType": "string",
          "name": "symbol",
          "type": "string"
        },
        {
          "indexed": false,
          "internalType": "address",
          "name": "priceFeedAddress",
          "type": "address"
        }
      ],
      "name": "PriceFeedUpdated",
      "type": "event"
    },
    {
      "inputs": [
        {
          "internalType": "string",
          "name": "symbol",
          "type": "string"
        },
        {
          "internalType": "address",
          "name": "priceFeedAddress",
          "type": "address"
        }
      ],
      "name": "addPriceFeed",
      "outputs": [],
      "stateMutability": "nonpayable",
      "type": "function"
    },
    {
      "inputs": [
        {
          "internalType": "string",
          "name": "symbol",
          "type": "string"
        }
      ],
      "name": "getLatestPrice",
      "outputs": [
        {
          "internalType": "int256",
          "name": "",
          "type": "int256"
        }
      ],
      "stateMutability": "view",
      "type": "function"
    },
    {
      "inputs": [
        {
          "internalType": "string",
          "name": "symbol",
          "type": "string"
        },
        {
          "internalType": "address",
          "name": "priceFeedAddress",
          "type": "address"
        }
      ],
      "name": "updatePriceFeed",
      "outputs": [],
      "stateMutability": "nonpayable",
      "type": "function"
    }
  ],
  "bytecode": "0x60806040523480156200001157600080fd5b506200006d6040518060400160405280600381526020017f4254430000000000000000000000000000000000000000000000000000000000815250731b44f3514812d835eb1bdb0acb33d3fa3351ee43620000ce60201b60201c565b620000c86040518060400160405280600381526020017f455448000000000000000000000000000000000000000000000000000000000081525073694aa1769357215de4fac081bf1f309adc325306620000ce60201b60201c565b620002da565b80600083604051620000e19190620001e5565b908152602001604051809103902060006101000a81548173ffffffffffffffffffffffffffffffffffffffff021916908373ffffffffffffffffffffffffffffffffffffffff1602179055507f1899bfed19bb5ad63c2bc7846fb4c1d443587802ecd6529054c82d3fd962cc1b828260405162000160929190620002a6565b60405180910390a15050565b600081519050919050565b600081905092915050565b60005b83811015620001a257808201518184015260208101905062000185565b60008484015250505050565b6000620001bb826200016c565b620001c7818562000177565b9350620001d981856020860162000182565b80840191505092915050565b6000620001f38284620001ae565b915081905092915050565b600082825260208201905092915050565b6000601f19601f8301169050919050565b60006200022d826200016c565b620002398185620001fe565b93506200024b81856020860162000182565b62000256816200020f565b840191505092915050565b600073ffffffffffffffffffffffffffffffffffffffff82169050919050565b60006200028e8262000261565b9050919050565b620002a08162000281565b82525050565b60006040820190508181036000830152620002c2818562000220565b9050620002d3602083018462000295565b9392505050565b6109a380620002ea6000396000f3fe608060405234801561001057600080fd5b50600436106100415760003560e01c80630932a214146100465780630dc16e1f14610062578063f66a1b711461007e575b600080fd5b610060600480360381019061005b919061058c565b6100ae565b005b61007c6004803603810190610077919061058c565b6101f5565b005b610098600480360381019061009391906105e8565b61028f565b6040516100a5919061064a565b60405180910390f35b600073ffffffffffffffffffffffffffffffffffffffff166000836040516100d691906106d6565b908152602001604051809103902060009054906101000a900473ffffffffffffffffffffffffffffffffffffffff1673ffffffffffffffffffffffffffffffffffffffff160361015b576040517f08c379a00000000000000000000000000000000000000000000000000000000081526004016101529061074a565b60405180910390fd5b8060008360405161016c91906106d6565b908152602001604051809103902060006101000a81548173ffffffffffffffffffffffffffffffffffffffff021916908373ffffffffffffffffffffffffffffffffffffffff1602179055507f74b9819a3b3ab6f1735c195541c4352dec722e0e22f92198d9f1719d2e89a75782826040516101e99291906107b2565b60405180910390a15050565b8060008360405161020691906106d6565b908152602001604051809103902060006101000a81548173ffffffffffffffffffffffffffffffffffffffff021916908373ffffffffffffffffffffffffffffffffffffffff1602179055507f1899bfed19bb5ad63c2bc7846fb4c1d443587802ecd6529054c82d3fd962cc1b82826040516102839291906107b2565b60405180910390a15050565b6000806000836040516102a291906106d6565b908152602001604051809103902060009054906101000a900473ffffffffffffffffffffffffffffffffffffffff169050600073ffffffffffffffffffffffffffffffffffffffff168173ffffffffffffffffffffffffffffffffffffffff1603610342576040517f08c379a00000000000000000000000000000000000000000000000000000000081526004016103399061082e565b60405180910390fd5b61034b81610353565b915050919050565b6000808273ffffffffffffffffffffffffffffffffffffffff1663feaf968c6040518163ffffffff1660e01b815260040160a060405180830381865afa1580156103a1573d6000803e3d6000fd5b505050506040513d601f19601f820116820180604052508101906103c591906108f2565b50505091505080915050919050565b6000604051905090565b600080fd5b600080fd5b600080fd5b600080fd5b6000601f19601f8301169050919050565b7f4e487b7100000000000000000000000000000000000000000000000000000000600052604160045260246000fd5b61043b826103f2565b810181811067ffffffffffffffff8211171561045a57610459610403565b5b80604052505050565b600061046d6103d4565b90506104798282610432565b919050565b600067ffffffffffffffff82111561049957610498610403565b5b6104a2826103f2565b9050602081019050919050565b82818337600083830152505050565b60006104d16104cc8461047e565b610463565b9050828152602081018484840111156104ed576104ec6103ed565b5b6104f88482856104af565b509392505050565b600082601f830112610515576105146103e8565b5b81356105258482602086016104be565b91505092915050565b600073ffffffffffffffffffffffffffffffffffffffff82169050919050565b60006105598261052e565b9050919050565b6105698161054e565b811461057457600080fd5b50565b60008135905061058681610560565b92915050565b600080604083850312156105a3576105a26103de565b5b600083013567ffffffffffffffff8111156105c1576105c06103e3565b5b6105cd85828601610500565b92505060206105de85828601610577565b9150509250929050565b6000602082840312156105fe576105fd6103de565b5b600082013567ffffffffffffffff81111561061c5761061b6103e3565b5b61062884828501610500565b91505092915050565b6000819050919050565b61064481610631565b82525050565b600060208201905061065f600083018461063b565b92915050565b600081519050919050565b600081905092915050565b60005b8381101561069957808201518184015260208101905061067e565b60008484015250505050565b60006106b082610665565b6106ba8185610670565b93506106ca81856020860161067b565b80840191505092915050565b60006106e282846106a5565b915081905092915050565b600082825260208201905092915050565b7f5072696365206665656420646f6573206e6f7420657869737400000000000000600082015250565b60006107346019836106ed565b915061073f826106fe565b602082019050919050565b6000602082019050818103600083015261076381610727565b9050919050565b600061077582610665565b61077f81856106ed565b935061078f81856020860161067b565b610798816103f2565b840191505092915050565b6107ac8161054e565b82525050565b600060408201905081810360008301526107cc818561076a565b90506107db60208301846107a3565b9392505050565b7f50726963652066656564206e6f7420666f756e6420666f722073796d626f6c00600082015250565b6000610818601f836106ed565b9150610823826107e2565b602082019050919050565b600060208201905081810360008301526108478161080b565b9050919050565b600069ffffffffffffffffffff82169050919050565b61086d8161084e565b811461087857600080fd5b50565b60008151905061088a81610864565b92915050565b61089981610631565b81146108a457600080fd5b50565b6000815190506108b681610890565b92915050565b6000819050919050565b6108cf816108bc565b81146108da57600080fd5b50565b6000815190506108ec816108c6565b92915050565b600080600080600060a0868803121561090e5761090d6103de565b5b600061091c8882890161087b565b955050602061092d888289016108a7565b945050604061093e888289016108dd565b935050606061094f888289016108dd565b92505060806109608882890161087b565b915050929550929590935056fea2646970667358221220e5071cfb68c9f8a83ff8bc8e251b4a00ff4c03547b5e7f4901f8903e1933554a64736f6c63430008180033",
  "linkReferences": {},
  "deployedLinkReferences": {}
}